:020000040800F2
:10000000000008240D2100084119000849190008C2
:100010005119000859190008611900080000000072
:10002000000000000000000000000000D1DD00081A
:10003000691900080000000021E00008C1B70008AD
:100040005D2100085D2100085D2100085D21000898
:100050005D2100085D2100085D2100085D21000888
:100060005D2100085D2100085D2100087919000864
:100070008D1900085D2100085D2100085D21000840
:100080005D2100085D2100085D2100085D21000858
:100090005D2100085D2100085D2100085D21000848
:1000A0005D2100085D2100085D2100085D21000838
:1000B0005D2100085D2100085D2100085D21000828
:1000C0005D2100085D2100085D2100085D21000818
:1000D0005D210008A11900085D210008B51900087C
:1000E0005D2100085D210008000000005D2100087E
:1000F0005D2100085D2100085D2100085D210008E8
:100100005D2100085D2100085D2100085D210008D7
:100110005D2100085D2100085D210008C919000863
:100120005D2100085D2100085D2100085D210008B7
:100130005D2100085D2100085D2100085D210008A7
:1001400000000000000000000000000000000000AF
:100150005D2100085D2100085D2100085D21000887
:100160005D2100085D2100085D2100085D21000877
:100170005D2100085D2100085D21000800000000ED
:100180005D2100085D2100085D2100085D21000857
:100190005D2100085D2100085D2100085D21000847
:1001A0005D2100085D2100085D2100085D21000837
:1001B0005D2100085D2100085D2100085D21000827
:1001C0005D2100085D2100085D2100085D21000817
:1001D0005D2100085D2100085D2100085D21000807
:1001E0005D2100085D2100085D2100085D210008F7
:1001F0005D2100085D2100085D2100085D210008E7
:100200005D2100085D2100085D2100085D210008D6
:100210005D2100085D2100085D2100085D210008C6
:100220005D2100085D2100085D210008000000003C
:100230005D2100085D210008000000005D2100082C
:100240005D2100085D2100085D2100085D21000896
:100250005D2100085D2100085D2100085D21000886
:100260005D2100085D2100085D2100085D21000876
:100270005D2100085D2100085D21000800000000EC
:100280005D2100085D2100085D21000800000000DC
:08029000000000005D210008E0
:1002A00010F8012B11F8013B012A28BF9A42F7D020
:1002B000D01A70470000000000000000000000009D
:1002C00001F0FF01102A2BDB10F0070F08D010F807
:1002D000013B013A8B422DD010F0070F42B3F6D10B
:1002E000F0B441EA012141EA014122F007047FF024
:1002F00000070023F0E80256083C85EA010586EA7B
:10030000010685FA47F5A3FA87F586FA47F6A5FAB6
:1003100087F68EB9EED1F0BC01F0FF0102F00702C2
:1003200032B110F8013B013A83EA010313B1F8D16D
:100330000020704701387047002D06BF354603384E
:10034000073815F0010F07D1013015F4807F02BF87
:10035000013015F4C03F0130F0BC0138704700BFD8
:10036000034613F8012B002AFBD1181A01387047F5
:100370007BB972B90029BEBF00204FF0004106E0F2
:1003800008BF00281CBF6FF000414FF0FF3000F0A5
:1003900057B8ADF1080C6DE904CE002909DB002B3C
:1003A0001ADB1EF04FF9DDF804E0DDE9022304B0AA
:1003B0007047404261EB4101002B1BDB1EF042F90C
:1003C000DDF804E0DDE9022304B0404261EB4101C5
:1003D000524263EB43037047524263EB43031EF008
:1003E00031F9DDF804E0DDE9022304B0404261EBBD
:1003F00041017047524263EB43031EF023F9DDF8DD
:1004000004E0DDE9022304B0524263EB430370478A
:1004100053B94AB9002908BF00281CBF4FF0FF316B
:100420004FF0FF3000F00CB8ADF1080C6DE904CED0
:100430001EF008F9DDF804E0DDE9022304B070479E
:10044000704700BF10B5054C237833B9044B13B186
:100450000448AFF300800123237010BDF80400248A
:100460000000000000E9010808B5034B1BB1034977
:100470000348AFF3008008BD00000000FC04002426
:1004800000E9010880B500AF094B1B780133DAB2EF
:10049000074B1A70064B1B78142B07D9044B00220C
:1004A0001A704FF40051034805F047F800BF80BDB3
:1004B000140500240008025880B582B000AF0CF08B
:1004C00077FC03467B6006481BF0E6FFFFF7DAFF88
:1004D0003B1D0A2118460CF099FA00BFF6E700BF51
:1004E00018E9010880B485B000AF03460A46FB71E5
:1004F0001346BB804FF0FF33FB60FB79012B08D024
:10050000FB79022B05D0FB79032B02D0FB79042B5E
:1005100010D1B7F90430B43B40F6980202FB03F364
:100520001B4A82FB03121A44D211DB179B1A03F5F4
:100530006173FB60FB79052B0FD1B7F9043040F6EE
:10054000F84202FB03F3134A82FB03121A4412120D
:10055000DB17D31A03F5BE73FB60FB79062B0FD1B3
:10056000B7F9043040F6980202FB03F3084A82FB15
:1005700003121A44D211DB17D31A03F56173FB601F
:10058000FB6818461437BD465DF8047B704700BF12
:10059000B7600BB649D6B9F280B485B000AF034658
:1005A0000A46FB711346BB804FF0FF33FB60B7F97F
:1005B0000430002B01DAFB685DE0FB79012B08D0E9
:1005C000FB79022B05D0FB79032B02D0FB79042B9E
:1005D00018D1B7F90430A3F5617307EE903AB8EE7D
:1005E000E76B9FED295B86EE057B9FED296B27EE80
:1005F000067B9FED296B37EE067BFDEEC77B17EE82
:10060000903AFB60FB79052B18D1B7F90430A3F5BC
:10061000BE7307EE903AB8EEE76B9FED215B86EE76
:10062000057B9FED216B27EE067BB6EE006B37EE68
:10063000067BFDEEC77B17EE903AFB60FB79062B3D
:1006400018D1B7F90430A3F5617307EE903AB8EE0C
:10065000E76B9FED0D5B86EE057B9FED156B27EE3F
:10066000067BB6EE006B37EE067BFDEEC77B17EE22
:10067000903AFB60FB6818461437BD465DF8047B72
:10068000704700BFAFF30080000000000030A140C1
:1006900000000000008066C000000000009066407E
:1006A0000000000000F0A9400000000000E07040E1
:1006B000000000000080664090B486B000AF0446A1
:1006C000084611461A462346FB800346BB800B466C
:1006D0007B8013463B80FB883B81BB887B817B888A
:1006E000BB813B88FB813B8C3B82BB8C7B820023A4
:1006F0007B6126E07B695B0018333B4433F8101CB8
:10070000144A7B6922F81310124A7B6932F81330BD
:10071000B3F57A6F06D90F4A7B694FF4FA6122F874
:1007200013100BE00B4A7B6932F813305F2B05D8AE
:10073000084A7B694FF4FA6122F813107B69013390
:100740007B617B69052BD5DD00BF00BF1837BD4637
:1007500090BC70470000002480B596B000AF0346FF
:10076000FB80FF2387F85530FF2387F85430FE23A2
:1007700087F85330222387F85230832387F851308B
:100780002A2387F85030042387F84F30864A07F130
:10079000440392E803001860043319800023FB63CC
:1007A0000023A7F8403000237B6300233B8700230E
:1007B00087F85730FB881B0A9BB287F84E30FB88BE
:1007C00087F84D30002387F8563041E097F85630CF
:1007D000764A32F813301B0A9AB297F85630D2B2E2
:1007E00058333B4403F81C2C97F856306F4A32F8C4
:1007F000132097F85630D2B258333B4403F8242CD8
:1008000097F8563058333B4413F8142C97F8573068
:100810001344DAB297F8563058333B4413F81C3C73
:100820001344DAB297F8563058333B4413F8243C5B
:100830001344DAB297F84E301344DAB297F84D30D9
:10084000134487F8573097F85630013387F85630FD
:1008500097F85630052BB9D997F8532097F85230AE
:100860001344DAB297F851301344DAB297F85030A3
:100870001344DAB297F84F301344DAB297F857308E
:100880001344DBB2DB4387F84C3097F855303B73A9
:1008900097F854307B7397F85330BB7397F8523006
:1008A000FB7397F851303B7497F850307B7497F88E
:1008B0004F30BB7497F84430FB7497F83C303B756D
:1008C00097F834307B7597F84E30BB7597F84D30FC
:1008D000FB7597F845303B7697F83D307B7697F877
:1008E0003530BB7697F84E30FB7697F84D303B7736
:1008F00097F846307B7797F83E30BB7797F83630DD
:10090000FB7797F84E3087F8203097F84D3087F80E
:10091000213097F8473087F8223097F83F3087F832
:10092000233097F8373087F8243097F84E3087F81F
:10093000253097F84D3087F8263097F8483087F8FB
:10094000273097F8403087F8283097F8383087F804
:10095000293097F84E3087F82A3097F84D3087F8CD
:100960002B3097F8493087F82C3097F8413087F8CA
:100970002D3097F8393087F82E3097F84E3087F8B9
:100980002F3097F84D3087F8303097F84C3087F893
:10099000313007F10C032621184600F0C7F800BFDC
:1009A0005837BD4680BD00BF2CE901080000002477
:1009B00080B584B000AF0346FB710B46BB80134685
:1009C0007B80B7F90420FB7911461846FFF78AFDB2
:1009D0000346FB81B7F90E30002B06DBF9897A88D4
:1009E000FB79184600F0B4F800E000BF1037BD46B0
:1009F00080BDB0B588B002AF0446084611461A461D
:100A00002346FB800346BB800B467B8013463B801E
:100A1000B7F9063019460120FFF764FD0346FB8253
:100A2000B7F9043019460220FFF75CFD0346BB828C
:100A3000B7F9023019460320FFF754FD03467B82C5
:100A4000B7F9003019460420FFF74CFD03463B82FE
:100A5000B7F9283019460520FFF744FD0346FB810E
:100A6000B7F92C3019460620FFF73CFD0346BB8141
:100A7000F88AB98A7C8A3D8AFB89BA8901920093F7
:100A80002B462246FFF718FE3B8E1846FFF764FE02
:100A900000BF1837BD46B0BD80B584B000AF034677
:100AA000FB710023FB81FB79184600F00DF903462A
:100AB000BB81B7F90C20FB7911461846FFF76CFD96
:100AC0000346FB81B7F90E3018461037BD4680BD8E
:100AD00080B500AF022308220349044807F082FFD3
:100AE0000346184680BD00BF18050024D80700241F
:100AF00080B483B000AF00237B6007E0094A7B68C5
:100B0000134400221A707B6801337B607B68072BDB
:100B1000F4DD054B00221A7000BF0C37BD465DF8AE
:100B2000047B7047180500242005002480B582B09E
:100B300000AF78600B467B807A88FF237968034892
:100B400007F0C2FE00BF0837BD4680BDD8070024AD
:100B500080B588B000AF0346FB710B46BB801346DF
:100B60007B80FF23FB77FF23BB77FB797B77072312
:100B70003B770323FB762A23BB76BB88B3F57A6FDA
:100B800003D94FF47A63BB8004E0BB885F2B01D8A4
:100B90006023BB80BB881B0A9BB27B76BB883B76FD
:100BA0007B881B0A9BB2FB757B88BB757A7F3B7F7A
:100BB0001344DAB2FB7E1344DAB2BB7E1344DAB2DA
:100BC0007B7E1344DAB23B7E1344DAB2FB7D1344DE
:100BD000DAB2BB7D1344DBB2DB437B75FB7F3B7238
:100BE000BB7F7B727B7FBB723B7FFB72FB7E3B7369
:100BF000BB7E7B737B7EBB733B7EFB73FB7D3B7459
:100C0000BB7D7B747B7DBB7407F108030B21184609
:100C1000FFF78CFF00BF2037BD4680BD80B485B094
:100C200000AF03463960FB713B681B78FB733B6880
:100C30005B78BB733B689B787B7300233B7300231B
:100C40007B81FB7BFF2B06D1BB7BF52B03D1FA7994
:100C50007B7B9A4202D04FF0FF332FE03B68023398
:100C60001A783B6803331B781344DAB23B680433C9
:100C70001B781344DAB23B6805331B781344DAB2AD
:100C80003B6806331B781344DBB2DB433B733B68A2
:100C900007331B783A7B9A420ED13B6805331B78A9
:100CA0001B021AB23B6806331B781BB213431BB2FC
:100CB0007B81B7F90A3001E04FF0FF331846143753
:100CC000BD465DF8047B704780B588B000AF034631
:100CD000FB71FF237B77FF233B77FB79FB760423B4
:100CE000BB7602237B7638233B760223FB754FF6D7
:100CF000FF73FB83FA7EBB7E1344DAB27B7E134420
:100D0000DAB23B7E1344DAB2FB7D1344DBB2DB4341
:100D1000BB757B7F3B733B7F7B73FB7EBB73BB7E73
:100D2000FB737B7E3B743B7E7B74FB7DBB74BB7D26
:100D3000FB74FFF7DDFE07F10C0308211846FFF7EF
:100D4000F5FEFFF7C5FE0346002B06D1FB7E0649E4
:100D50001846FFF763FF0346FB83B7F91E301846BA
:100D60002037BD4680BD00BF1805002480B582B085
:100D700000AF2E4B1B781846FFF78EFE0346FB8014
:100D80002A4B1B78013B052B26D801A252F823F0F1
:100D9000A90D0008B10D0008B90D0008C10D00082B
:100DA000C90D0008D10D0008214AFB88138014E00A
:100DB0001F4AFB88538010E01D4AFB8893800CE09B
:100DC0001B4AFB88D38008E0194AFB88138104E0A2
:100DD000174AFB88538100E000BF144B1B78013396
:100DE000DAB2124B1A70114B1B78062B19D9114B22
:100DF0001B885A1C91B20F4A11801BB2C3F30E0319
:100E00001AB20B4B9A81002209490B4810F018FBCB
:100E10000346002B02D009481BF03EFB034B012286
:100E20001A7000BF0837BD4680BD00BF0D0000240A
:100E30004C0500244E0600244805002434E901082E
:100E4000B0B500AF01F0DCF9034600221C461546A0
:100E500022462B4610461946B0BD0000B0B588B0FA
:100E600000AFFFF7EDFFC7E904010023FB770DE0BA
:100E70004FF47A7013F01EFDFB7F0133FB7713F004
:100E8000F3FC0346002B01D00523FB77FB7F042BEB
:100E9000EED913F0E9FC034683F00103DBB2002B2B
:100EA00012D04FF47A7013F005FDF860FB68002B48
:100EB0000AD0FA689F210F481BF086FA0E4B0522D4
:100EC0001A6000200BF02EFD13F0D8FCC7E90001DA
:100ED000FFF7B6FFC7E90401D7E90001D7E904230A
:100EE000841A61EB0305054BC3E9004500BF2037B9
:100EF000BD46B0BD54E9010824050024380600248D
:100F000080B586B000AF3B1D184611F08DFD0F4B2C
:100F10007B600F4BBB600F4BFB600F4B3B613B1D7E
:100F2000184611F08FFD034683F00103DBB2002B5E
:100F300006D0C42109481BF047FA4FF0FF3300E008
:100F4000002318461837BD4680BD00BF89B300088E
:100F5000CDB3000805B4000871B4000878E90108B1
:100F600080B588B004AF78600023FB607B68029393
:100F7000074B0193074B0093074B084A0849012090
:100F800012F0B2F9F860FB6818461037BD4680BD14
:100F9000ADB1000851B1000831B1000805B1000839
:100FA0004407002480B500AF0A4B1B680133094A8F
:100FB0001360084B1B68642B08DD064B00221A6087
:100FC0000121642012F0A8F9034600E0002318462E
:100FD00080BD00BF5006002480B586B000AF7860A9
:100FE0007B687B617B691B78FB747B695B883B82D8
:100FF0007B699B88FB81F97CB7F91020B7F90E302B
:1010000007481BF0E1F9B7F90E20B7F91010FB7C87
:101010001846FFF7CDFC00BF1837BD4680BD00BFA6
:10102000A0E90108F0B589B004AF78607B68FB6087
:10103000FB68B3F90000FB68B3F90240FB68B3F941
:101040000450FB68B3F90660FB68B3F90830FA682E
:10105000B2F90A20F968B1F90C10029101920093DB
:1010600033462A462146FFF7C4FC00BF1437BD466D
:10107000F0BD0000B0B5B8B002AF0023C7F8D4305F
:10108000B94C07F18803184611F0FAFC254607F120
:1010900088040FCC0FC523682B600FF053FD034667
:1010A000C7F8A830B04B07F1A8046D4603F10C0255
:1010B00092E8030085E803000ECB20460FF044FDC4
:1010C000C7F8D000D7F8D030002B0CD0D7F8D020FC
:1010D0004FF48A71A5481BF077F9A54B05221A60D9
:1010E00000200BF01FFCA34B1B781A4607F1A80346
:1010F000114618460FF026FEC7F8CC00D7F8CC30C2
:10110000002B0CD0D7F8CC2040F2151197481BF0DB
:101110005BF9974B05221A6000200BF003FC07F1E6
:10112000A80318460FF016FEC7F8C80032200AF0D0
:101130003DFC904B1B7819468F481BF045F9D7F8BA
:10114000C800FFF70DFFFFF7DBFE4FF4FA700AF05F
:101150002DFC07F1A803844A009200220021874851
:101160000FF0FEF9C7F8D400D7F8D430002B03D025
:1011700083481BF091F9E8E700BF82481BF08CF927
:10118000FFF76CFE804C07F1880318460FF00AFE4B
:10119000224607F1880393E8030082E80300774BB7
:1011A0007A4A7B4978480FF0A1FAC7F8C400D7F80B
:1011B000C430002B0CD0D7F8C4204FF494716B4886
:1011C0001BF002F96A4B05221A6000200BF0AAFB03
:1011D000704B1B780133DAB26E4B1A700DF0ECF9DC
:1011E00002466D4B68496D480FF06CFBC7F8C000B4
:1011F000D7F8C030002B0CD0D7F8C0204FF4967130
:101200005A481BF0E1F85A4B05221A6000200BF0F7
:1012100089FB604B1B780133DAB25E4B1A700DF01C
:10122000B3F902465E4B58495E480FF04BFBC7F8D6
:10123000BC00D7F8BC30002B0CD0D7F8BC2040F253
:1012400033114A481BF0C0F8494B05221A600020B0
:101250000BF068FB0DF098F90246534B4A4953488E
:101260000FF0F6FAC7F8B800D7F8B830002B0CD05A
:10127000D7F8B82040F239113C481BF0A5F83C4B98
:1012800005221A6000200BF04DFB424B1B781946DB
:1012900047481BF099F8474C3B4618460EF074FE41
:1012A00020463B46882219461BF08FFB394B1B78A2
:1012B0001A462D4B31493F480EF072FEC7F8B40074
:1012C000D7F8B430002B0CD0D7F8B42040F241113D
:1012D00026481BF079F8264B05221A6000200BF0F7
:1012E00021FB00230093344B344A2C4931480EF043
:1012F000D3FEC7F8B000D7F8B030002B0CD0D7F829
:10130000B0204FF4A27119481BF05EF8184B05226B
:101310001A6000200BF006FB00230093284B294A9B
:10132000204924480EF0B8FEC7F8AC00D7F8AC301E
:10133000002B0CD0D7F8AC2040F24B110B481BF01F
:1013400043F80B4B05221A6000200BF0EBFA012248
:101350004FF480411C4804F0D7F80BF029FD0346F8
:10136000C7F8A43045E000BF5C05002454E901083B
:10137000240500240C000024B8E9010870050024AD
:10138000CCE90108E4E90108300600244406002401
:10139000FCE90108400600240CEA010828050024A5
:1013A00018EA01083405002424EA0108480500244D
:1013B0003CEA0108A8050024D90F00082C050024E8
:1013C000251000083805002400080258164A4FF07E
:1013D000000316480FF08AF8FFF7C8FCFFF7E2FD9C
:1013E0000346002B0AD107F1A4030A2118460BF08B
:1013F0000DFB0F4B1B68022BE8DD00E000BF002255
:101400004FF480410B4804F07FF80B481BF044F880
:101410000A481BF041F80A200BF078FB00F0FFFFB0
:1014200000BFD837BD46B0BD80969800A8050024FF
:10143000240500240008025850EA010860EA010867
:1014400080B582B000AF114BD3F8D8300F4A43F0CB
:101450000103C2F8D8300D4BD3F8D83003F00103A4
:101460007B607B68002205210B2000F0B0FF0B2081
:1014700000F0C7FF002205210C2000F0A8FF0C207F
:1014800000F0BFFF00BF0837BD4680BD00440258D2
:1014900080B500AF084A002108480AF0F5F9034674
:1014A000074A1360074A002107480AF0EDF903468E
:1014B000064A136000BF80BD48EB0108D114000844
:1014C000540600246CEB0108E714000858060024B9
:1014D00080B582B000AF7860FEF7EEFF4FF47A700F
:1014E0000AF064FAFAE780B582B000AF7860642051
:1014F0000AF05CFAFFF7BEFD4FF47A700AF056FA74
:10150000FAE7000080B58AB000AF07F114030022AB
:101510001A605A609A60DA601A61324BD3F8E03090
:10152000304A43F00403C2F8E0302E4BD3F8E030E9
:1015300003F004033B613B692A4BD3F8E030294AAE
:1015400043F08003C2F8E030264BD3F8E03003F0DC
:101550008003FB60FB68234BD3F8E030214A43F063
:101560001003C2F8E0301F4BD3F8E03003F0100353
:10157000BB60BB681B4BD3F8E0301A4A43F008034A
:10158000C2F8E030174BD3F8E03003F008037B607B
:101590007B68144BD3F8E030124A43F00103C2F8E1
:1015A000E030104BD3F8E03003F001033B603B68C0
:1015B00000224FF4C0410C4803F0A6FF4FF4C04393
:1015C0007B610123BB610023FB6100233B6207F1C8
:1015D00014031946044803F0E7FD00BF2837BD4651
:1015E00080BD00BF004402580008025880B500AF1B
:1015F00000F0D8F800F0B4FD00F012F8FFF782FF19
:10160000FFF71EFF00F068FB00F0B4FB00F018FBD2
:101610000AF0F0F8FFF73CFF0AF010F900BFFDE711
:1016200080B59EB000AF07F12C034C220021184674
:101630001BF0A8F807F10C032022002118461BF02C
:10164000A1F8022003F094FF0023BB60484BDB6A43
:10165000474A23F00103D362454BDB6A03F00103E1
:10166000BB60444B9B69434A43F440439361414B05
:101670009B6903F44043BB60BB6800BF3D4B9B6963
:1016800003F40053B3F5005FF8D13B4BD3F8F430CB
:10169000394A43F00203C2F8F430374BD3F8F43040
:1016A00003F002037B607B6800233B60314B9B6946
:1016B000304A43F4404393612E4B9B6903F440430B
:1016C0003B602B4BDB6A2A4A43F00103D362284B71
:1016D000DB6A03F001033B603B6800BF254B9B695D
:1016E00003F40053B3F5005FF8D10123FB624FF41C
:1016F00080333B6302233B6502237B650523BB6587
:10170000C023FB6502233B6608237B660223BB667E
:101710000823FB6600233B6700237B6707F12C034C
:10172000184603F05FFF0346002B01D000F078F865
:101730003F23FB6003233B6100237B610823BB61E4
:101740004023FB6140233B624FF480637B62402374
:10175000BB6207F10C030421184604F09DFB03460D
:10176000002B01D000F05CF800BF7837BD4680BD8B
:1017700000040058004802580044025880B584B064
:1017800000AFF860B9607A607B689AB2FF23B968ED
:10179000034807F099F87B6818461037BD4680BDAE
:1017A000B006002480B584B000AF3B4600221A602A
:1017B0005A609A60DA6000F037FE01233B70002324
:1017C0007B7000237B601F233B7287237B72002387
:1017D000BB720023FB7201233B7301237B73002345
:1017E000BB730023FB733B46184600F055FE0420F4
:1017F00000F032FE00BF1037BD4680BD80B582B01C
:1018000000AF78607B681B68044A934201D100F006
:10181000E3FC00BF0837BD4680BD00BF0014004098
:1018200080B400AF72B600BF00BFFDE780B582B0E4
:1018300000AF0C4BD3F8F4300A4A43F00203C2F86D
:10184000F430084BD3F8F43003F002037B607B687C
:1018500000220F216FF0010000F0B9FD00BF083732
:10186000BD4680BD0044025880B590B000AF78609E
:101870007B680F2B27D800227968372000F0A7FD5E
:10188000372000F0BEFD294A7B681360284BD3F84F
:10189000E830274A43F02003C2F8E830244BD3F85D
:1018A000E83003F02003FB60FB6807F1100207F14A
:1018B00014031146184604F07BFEBB6ABB63BB6B86
:1018C000002B06D101E001232BE004F045FEF86374
:1018D00004E004F041FE03465B00FB63FB6B154A2A
:1018E000A2FB03239B0C013B7B63134B134A1A603F
:1018F000114B40F2E732DA600F4A7B6B53600E4BBC
:1019000000221A610C4B00229A600B4806F0BEFCC4
:101910000346002B04D1084806F01AFD034600E0F8
:10192000012318464037BD4680BD00BF1C0000247F
:101930000044025883DE1B435C0600240014004070
:1019400080B400AF00BFFDE780B400AF00BFFDE78B
:1019500080B400AF00BFFDE780B400AF00BFFDE77B
:1019600080B400AF00BFFDE780B400AF00BFBD464C
:101970005DF8047B7047000080B500AF024802F0BC
:10198000F5F800BF80BD00BF6C08002480B500AF33
:10199000024802F0EBF800BF80BD00BFE40800245D
:1019A00080B500AF024807F047FA00BF80BD00BF16
:1019B0004407002480B500AF024807F03DFA00BF9D
:1019C00080BD00BFD807002480B500AF024806F0F4
:1019D00037FD00BF80BD00BF5C06002480B400AFAF
:1019E00001231846BD465DF8047B704780B582B080
:1019F00000AF786039601AF0B3FF034616221A6010
:101A00004FF0FF3318460837BD4680BD80B582B021
:101A100000AF78604FF0FF317868FFF7E7FF00BF55
:101A2000FDE780B586B000AFF860B9607A6000234A
:101A30007B610AE0AFF300800146BB685A1CBA60C4
:101A4000CAB21A707B6901337B617A697B689A42FA
:101A5000F0DB7B6818461837BD4680BD80B483B084
:101A600000AF78604FF0FF3318460C37BD465DF885
:101A7000047B704780B483B000AF786039603B6806
:101A80004FF400525A60002318460C37BD465DF8EB
:101A9000047B704780B483B000AF786001231846A0
:101AA0000C37BD465DF8047B704780B485B000AF4D
:101AB000F860B9607A60002318461437BD465DF8B7
:101AC000047B704780B586B000AF7860144A154B30
:101AD000D31A7B617B693B61134B1B68002B02D1DE
:101AE000114B124A1A60104B1A687B6813443A690A
:101AF0009A4207D21AF034FF03460C221A604FF0C4
:101B0000FF3309E0084B1B68FB60074B1A687B68D2
:101B10001344054A1360FB6818461837BD4680BD5C
:101B20000000082400040000AC0600247800022411
:101B300080B400AF374BD3F88830364A43F4700393
:101B4000C2F88830344B1B6803F00F03062B07D80C
:101B5000314B1B6823F00F032F4A43F00703136038
:101B60002E4B1B682D4A43F0010313602B4B0022C0
:101B70001A612A4B1A682949294B13400B60264BDE
:101B80001B6803F00803002B07D0234B1B6823F0CE
:101B90000F03214A43F007031360204B00229A6190
:101BA0001E4B0022DA611D4B00221A621B4B1D4A9C
:101BB0009A621A4B1C4ADA62184B1C4A1A63174B7A
:101BC00000225A63154B194A9A63144B0022DA63B8
:101BD000124B164A1A64114B00225A640F4B1B68B1
:101BE0000E4A23F4802313600C4B00221A66104B1C
:101BF0001A68104B1340B3F1005F02D20E4B012262
:101C00001A600E4B43F2D2021A6000BFBD465DF867
:101C1000047B704700ED00E00020005200440258B1
:101C20007FEDF6EA000202020000FF0180020101DE
:101C30000010005C0000FFFF0881005100400052CE
:101C400080B500AF224B234A1A60214B4FF4E1329A
:101C50005A601F4B00229A601D4B0022DA601C4B19
:101C600000221A611A4B0C225A61194B00229A6108
:101C7000174B0022DA61164B00221A62144B002225
:101C80005A62134B00229A62114806F0CDFD0346BA
:101C9000002B01D0FFF7C4FD00210D4808F018FF0C
:101CA0000346002B01D0FFF7BBFD0021084808F0D8
:101CB0004DFF0346002B01D0FFF7B2FD044808F0AA
:101CC000CEFE0346002B01D0FFF7AAFD00BF80BD6A
:101CD000B00600240078004080B500AF224B234AB4
:101CE0001A60214B224A5A601F4B00229A601E4BF9
:101CF0000022DA601C4B00221A611B4B0C225A6135
:101D0000194B00229A61184B0022DA61164B00220F
:101D10001A62154B00225A62134B00229A62124833
:101D200006F082FD0346002B01D0FFF779FD00216C
:101D30000D4808F0CDFE0346002B01D0FFF770FDE3
:101D40000021094808F002FF0346002B01D0FFF7ED
:101D500067FD054808F083FE0346002B01D0FFF71E
:101D60005FFD00BF80BD00BF44070024001001409C
:101D700080841E0080B500AF224B234A1A60214B9D
:101D80004FF4E1325A601F4B00229A601D4B002233
:101D9000DA601C4B00221A611A4B0C225A61194B53
:101DA00000229A61174B0022DA61164B00221A6258
:101DB000144B00225A62134B00229A62114806F01B
:101DC00033FD0346002B01D0FFF72AFD00210D480B
:101DD00008F07EFE0346002B01D0FFF721FD002115
:101DE000084808F0B3FE0346002B01D0FFF718FDAA
:101DF000044808F034FE0346002B01D0FFF710FD25
:101E000000BF80BDD80700240048004080B5BEB0A8
:101E100000AF786007F1E40300221A605A609A600C
:101E2000DA601A6107F12003C022002118461AF077
:101E3000A9FC7B681B68AA4A934247D14FF0020273
:101E40004FF00003C7E908230023C7F8983007F1D3
:101E50002003184604F0EEFB0346002B01D0FFF7E9
:101E6000DFFCA04BD3F8E8309E4A43F08043C2F831
:101E7000E8309C4BD3F8E83003F08043FB61FB690A
:101E8000984BD3F8E030974A43F01003C2F8E030A3
:101E9000944BD3F8E03003F01003BB61BB694FF4FF
:101EA000C073C7F8E4300223C7F8E8300023C7F84E
:101EB000EC300023C7F8F0300723C7F8F43007F1FF
:101EC000E4031946884803F06FF905E17B681B6855
:101ED000864A934240F0AC804FF001024FF000037D
:101EE000C7E908230023C7F89C3007F120031846F0
:101EF00004F0A0FB0346002B01D0FFF791FC794BC7
:101F0000D3F8F030774A43F01003C2F8F030754B45
:101F1000D3F8F03003F010037B617B69714BD3F889
:101F2000E030704A43F00103C2F8E0306D4BD3F863
:101F3000E03003F001033B613B694FF4C063C7F835
:101F4000E4300223C7F8E8300023C7F8EC30002360
:101F5000C7F8F0300723C7F8F43007F1E403194657
:101F6000634803F021F9634B634A1A60614B2922ED
:101F70005A60604B00229A605E4B0022DA605D4B33
:101F80004FF480621A615B4B00225A61594B002268
:101F90009A61584B4FF48072DA61564B00221A62F4
:101FA000544B00225A62534800F0B6FA0346002B05
:101FB00001D0FFF735FC7B684E4AC3F880204D4ABC
:101FC0007B6893634D4B4E4A1A604C4B2A225A60F1
:101FD0004A4B40229A60494B0022DA60474B4FF44B
:101FE00080621A61454B00225A61444B00229A617B
:101FF000424B0022DA61414B00221A623F4B002221
:102000005A623E4800F088FA0346002B01D0FFF7E1
:1020100007FC7B68394ADA67384A7B689363002299
:102020000521252000F0D3F9252000F0EAF953E03E
:102030007B681B68334A93424ED14FF002024FF047
:102040000003C7E908230023C7F8983007F12003ED
:10205000184604F0EFFA0346002B01D0FFF7E0FB2F
:10206000204BD3F8E8301F4A43F48023C2F8E8300D
:102070001C4BD3F8E83003F48023FB60FB68194B5A
:10208000D3F8E030174A43F00803C2F8E030154BAC
:10209000D3F8E03003F00803BB60BB684FF4407333
:1020A000C7F8E4300223C7F8E8300023C7F8EC3063
:1020B0000023C7F8F0300723C7F8F43007F1E40332
:1020C0001946114803F070F800220521272000F07E
:1020D0007EF9272000F095F900BFF837BD4680BD96
:1020E00000780040004402580010025800100140DF
:1020F000000002586C08002410000240E40800248C
:102100002800024000480040000C0258DFF834D09C
:10211000FFF70EFD0C480D490D4A002302E0D4588C
:10212000C4500433C4188C42F9D30A4A0A4C002321
:1021300001E013600432A242FBD31AF017FCFFF750
:1021400055FA70470000082400000024F40400241D
:102150003CFC0108F804002474000224FEE700009F
:1021600080B582B000AF032000F026F904F04AF8F1
:102170000246154B9B691B0A03F00F031349CB5C06
:1021800003F01F0322FA03F37B600F4B9B6903F0FC
:102190000F030E4AD35C03F01F037A6822FA03F39D
:1021A0000B4A13600B4A7B6813600F20FFF75CFB40
:1021B0000346002B01D0012302E0FFF737FB002389
:1021C00018460837BD4680BD0044025890EB010810
:1021D000180000241400002480B400AF064B1B78C4
:1021E0001A46064B1B681344044A136000BFBD46E1
:1021F0005DF8047B704700BF200000245C090024C8
:1022000080B400AF034B1B681846BD465DF8047BE5
:10221000704700BF5C09002480B400AF034B1B680B
:102220001B0C1846BD465DF8047B70470010005C2F
:1022300080B485B000AF78607B6803F00703FB6073
:102240000B4BDB68BB60BA684FF6FF031340BB6003
:10225000FB681A02BB681A43064B1343BB60044A6F
:10226000BB68D36000BF1437BD465DF8047B704780
:1022700000ED00E00000FA0580B400AF044BDB681D
:102280001B0A03F007031846BD465DF8047B704740
:1022900000ED00E080B483B000AF0346FB80B7F9E7
:1022A0000630002B0BDBFB8803F01F020749B7F950
:1022B00006305B09012000FA02F241F8232000BF3A
:1022C0000C37BD465DF8047B704700BF00E100E0BD
:1022D00080B483B000AF03463960FB80B7F90630A5
:1022E000002B0ADB3B68DAB20C49B7F90630120161
:1022F000D2B20B4483F800230AE03B68DAB2084903
:10230000FB8803F00F03043B1201D2B20B441A7690
:1023100000BF0C37BD465DF8047B704700E100E06C
:1023200000ED00E080B489B000AFF860B9607A6079
:10233000FB6803F00703FB61FB69C3F10703042B90
:1023400028BF0423BB61FB690433062B02D9FB6958
:10235000033B00E000237B614FF0FF32BB6902FAD0
:1023600003F3DA43BB681A407B699A404FF0FF31B0
:102370007B6901FA03F3D9437B680B40134318468A
:102380002437BD465DF8047B7047000080B400AF81
:10239000BFF34F8F00BF064BDB6803F4E0620449D4
:1023A000044B1343CB60BFF34F8F00BF00BFFDE76B
:1023B00000ED00E00400FA0580B582B000AF78605F
:1023C0007868FFF735FF00BF0837BD4680BD80B590
:1023D00086B000AF0346B9607A60FB81FFF74CFF1F
:1023E00078617A68B9687869FFF79CFF0246B7F9A7
:1023F0000E3011461846FFF76BFF00BF1837BD4679
:1024000080BD80B582B000AF0346FB80B7F90630CF
:102410001846FFF73FFF00BF0837BD4680BD80B5B7
:1024200000AFFFF7B3FF000080B400AFBFF35F8FD2
:1024300000BF074B5B6A064A23F480335362054BA7
:1024400000225A6000BFBD465DF8047B704700BFA4
:1024500000ED00E090ED00E080B483B000AF786064
:102460000B4A7B6843F0010353600A4B5B6A094ADD
:1024700043F480335362BFF34F8F00BFBFF36F8FBE
:1024800000BF00BF0C37BD465DF8047B704700BF3E
:1024900090ED00E000ED00E080B483B000AF786024
:1024A0007B685A781B4B9A601A4B1B69194A23F0B8
:1024B00001031361174A7B685B68D3607B681B7BF1
:1024C0001A077B68DB7A1B061A437B689B7ADB045E
:1024D0001A437B685B7B9B041A437B689B7B5B0492
:1024E0001A437B68DB7B1B041A437B685B7A1B0205
:1024F0001A437B681B7A5B0013437A681278114693
:10250000044A0B43136100BF0C37BD465DF8047BE2
:10251000704700BF90ED00E080B586B000AF7860F6
:10252000FFF76EFE38617B68002B01D1012316E3B3
:102530007B681B68664A93424AD07B681B68654A81
:10254000934245D07B681B68634A934240D07B68C6
:102550001B68624A93423BD07B681B68604A934287
:1025600036D07B681B685F4A934231D07B681B681A
:102570005D4A93422CD07B681B685C4A934227D00B
:102580007B681B685A4A934222D07B681B68594A71
:1025900093421DD07B681B68574A934218D07B68D2
:1025A0001B68564A934213D07B681B68544A934277
:1025B0000ED07B681B68534A934209D07B681B6826
:1025C000514A934204D07B681B68504A934201D120
:1025D000012300E00023002B00F03B817B680222F6
:1025E00083F835207B68002283F834207B681B68E1
:1025F000374A93424AD07B681B68364A934245D09B
:102600007B681B68344A934240D07B681B68334A1E
:1026100093423BD07B681B68314A934236D07B683B
:102620001B68304A934231D07B681B682E4A934224
:102630002CD07B681B682D4A934227D07B681B688F
:102640002B4A934222D07B681B682A4A93421DD0B2
:102650007B681B68284A934218D07B681B68274A0E
:10266000934213D07B681B68254A93420ED07B6847
:102670001B68244A934209D07B681B68224A934214
:1026800004D07B681B68214A934208D17B681B6891
:102690001A687B681B6822F001021A6007E07B68F9
:1026A0001B681A687B681B6822F001021A602FE021
:1026B000FFF7A6FD02463B69D31A052B28D97B6894
:1026C00020225A657B68032283F83520012346E2E5
:1026D0001000024028000240400002405800024022
:1026E0007000024088000240A0000240B800024092
:1026F00010040240280402404004024058040240F2
:102700007004024088040240A0040240B804024061
:102710007B681B681B6803F00103002BC8D17B6832
:102720001B681B687B617A69834B13407B617B6804
:102730009A687B68DB681A437B681B691A437B686D
:102740005B691A437B689B691A437B68DB691A43A0
:102750007B681B6A13437A6913437B617B685B6AFE
:10276000042B07D17B68DA6A7B681B6B13437A6999
:1027700013437B61714B1A68714B1340B3F1005FD7
:1027800028D37B685B68282B03D97B685B682E2B7A
:1027900017D97B685B683E2B03D97B685B68422B4B
:1027A0000FD97B685B68462B03D97B685B68482B35
:1027B00007D97B685B684E2B05D97B685B68522B19
:1027C00001D8012300E00023002B03D07B6943F4F0
:1027D00080137B617B681B687A691A607B681B6861
:1027E0005B697B617B6923F007037B617B685B6AC4
:1027F0007A6913437B617B685B6A042B17D17B6822
:102800009B6A7A6913437B617B68DB6A002B0ED07D
:10281000786802F03FFB0346002B08D07B6840221B
:102820005A657B68012283F83520012397E17B6894
:102830001B687A695A61786802F07AFA0346BB60CD
:102840007B68DB6D03F01F033F229A40BB689A60F0
:10285000CDE07B681B683B4A934222D07B681B68B3
:10286000394A93421DD07B681B68384A934218D07E
:102870007B681B68364A934213D07B681B68354AD5
:1028800093420ED07B681B68334A934209D07B6821
:102890001B68324A934204D07B681B68304A9342DB
:1028A00001D1012300E00023002B00F097807B681A
:1028B0001B68244A934221D07B681B68224A9342BA
:1028C0001CD07B681B68214A934217D07B681B6829
:1028D0001F4A934212D07B681B681E4A93420DD058
:1028E0007B681B681C4A934208D07B681B681B4AA4
:1028F000934203D07B681B68194A93427B6802228B
:1029000083F835207B68002283F834207B681B68BD
:102910001B687B617A69134B13407B617B689B6802
:10292000402B21D07B689B68802B02D14FF48043E1
:102930001BE0002319E000BF3F8010FE0010005C88
:102940000000FFFF085402581C540258305402582B
:1029500044540258585402586C5402588054025837
:10296000945402580F00FEFF10237A68D268D208F0
:102970001A437B681B69DB081A437B685B69DB08C9
:102980001A437B689B69DB081A437B68DB69DB08B9
:102990001A437B681B6A1B0913437A6913437B61E3
:1029A0007B681B687A691A607B681B681A466E4BE5
:1029B00013446E4AA2FB03231B099A007B68DA6565
:1029C000786802F0B5F90346FB607B68DB6D03F0C5
:1029D0001F0301229A40FB685A6008E07B6840228E
:1029E0005A657B68032283F835200123B7E07B68B2
:1029F0001B685F4A934272D07B681B685D4A9342B2
:102A00006DD07B681B685C4A934268D07B681B680A
:102A10005A4A934263D07B681B68594A93425ED0FE
:102A20007B681B68574A934259D07B681B68564A9B
:102A3000934254D07B681B68544A93424FD07B68C2
:102A40001B68534A93424AD07B681B68514A9342A1
:102A500045D07B681B68504A934240D07B681B6816
:102A60004E4A93423BD07B681B684D4A934236D016
:102A70007B681B684B4A934231D07B681B684A4A8B
:102A800093422CD07B681B68484A934227D07B68CE
:102A90001B68474A934222D07B681B68454A934291
:102AA0001DD07B681B68444A934218D07B681B6822
:102AB000424A934213D07B681B68414A93420ED02E
:102AC0007B681B683F4A934209D07B681B683E4A7B
:102AD000934204D07B681B683C4A934201D1012396
:102AE00000E00023002B32D0786802F04FFA7B68B8
:102AF0009B68802B02D17B6800225A607B685A68F1
:102B00007B681B6ED2B21A607B685B6E7A68926ECD
:102B10005A607B685B68002B10D07B685B68082B71
:102B20000CD8786802F0CCFA7B68DB6E00221A6061
:102B30007B681B6F7A68526F5A6008E07B680022DE
:102B4000DA667B6800221A677B6800225A677B6816
:102B500000225A657B68012283F83520002318463D
:102B60001837BD4680BD00BFF8ABFDA7CDCCCCCC9F
:102B7000100002402800024040000240580002407D
:102B80007000024088000240A0000240B8000240ED
:102B9000100402402804024040040240580402404D
:102BA0007004024088040240A0040240B8040240BD
:102BB000085402581C5402583054025844540258C5
:102BC000585402586C540258805402589454025875
:102BD00080B586B000AFF860B9607A603B600023D2
:102BE000FB75FB68002B01D1012326E2FB6893F8FB
:102BF0003430012B01D102231FE2FB68012283F84C
:102C00003420FB6893F83530DBB2012B40F00A82A8
:102C1000FB68022283F83520FB6800225A65FB68B6
:102C20001B68684A93424AD0FB681B68664A934215
:102C300045D0FB681B68654A934240D0FB681B681F
:102C4000634A93423BD0FB681B68624A934236D08A
:102C5000FB681B68604A934231D0FB681B685F4A7F
:102C600093422CD0FB681B685D4A934227D0FB68D7
:102C70001B685C4A934222D0FB681B685A4A934205
:102C80001DD0FB681B68594A934218D0FB681B682B
:102C9000574A934213D0FB681B68564A93420ED0A2
:102CA000FB681B68544A934209D0FB681B68534A6F
:102CB000934204D0FB681B68514A934208D1FB68D9
:102CC0001B681A68FB681B6822F001021A6007E0A3
:102CD000FB681B681A68FB681B6822F001021A6017
:102CE0003B687A68B968F86801F076FEFB681B6893
:102CF000344A93424AD0FB681B68334A934245D01A
:102D0000FB681B68314A934240D0FB681B68304A1D
:102D100093423BD0FB681B682E4A934236D0FB6837
:102D20001B682D4A934231D0FB681B682B4A9342A3
:102D30002CD0FB681B682A4A934227D0FB681B688B
:102D4000284A934222D0FB681B68274A93421DD031
:102D5000FB681B68254A934218D0FB681B68244A0D
:102D6000934213D0FB681B68224A93420ED0FB6843
:102D70001B68214A934209D0FB681B681F4A934293
:102D800004D0FB681B681E4A934201D1012300E076
:102D90000023002B36D0FB681B681B6823F01E0243
:102DA000FB681B6842F016021A60FB681B6C002B64
:102DB0003ED0FB681B681A68FB681B6842F008027B
:102DC0001A6035E010000240280002404000024036
:102DD000580002407000024088000240A0000240FB
:102DE000B80002401004024028040240400402409F
:102DF000580402407004024088040240A0040240CB
:102E0000B8040240FB681B681B6823F00E02FB68D5
:102E10001B6842F00A021A60FB681B6C002B07D08B
:102E2000FB681B681A68FB681B6842F004021A60A2
:102E3000FB681B68834A934272D0FB681B68824A16
:102E400093426DD0FB681B68804A934268D0FB6850
:102E50001B687F4A934263D0FB681B687D4A93429C
:102E60005ED0FB681B687C4A934259D0FB681B68A4
:102E70007A4A934254D0FB681B68794A93424FD0F8
:102E8000FB681B68774A93424AD0FB681B68764A06
:102E9000934245D0FB681B68744A934240D0FB685C
:102EA0001B68734A93423BD0FB681B68714A93428C
:102EB00036D0FB681B68704A934231D0FB681B68B0
:102EC0006E4A93422CD0FB681B686D4A934227D010
:102ED000FB681B686B4A934222D0FB681B686A4AF6
:102EE00093421DD0FB681B68684A934218D0FB6868
:102EF0001B68674A934213D0FB681B68654A93427C
:102F00000ED0FB681B68644A934209D0FB681B68BB
:102F1000624A934204D0FB681B68614A934201D124
:102F2000012300E00023002B1AD0FB681B6E1B68F6
:102F300003F48033002B07D0FB681B6E1A68FB6814
:102F40001B6E42F480721A60FB68DB6E002B07D0A8
:102F5000FB68DB6E1A68FB68DB6E42F480721A60F5
:102F6000FB681B68374A93424AD0FB681B68364AA5
:102F7000934245D0FB681B68344A934240D0FB68BB
:102F80001B68334A93423BD0FB681B68314A93422B
:102F900036D0FB681B68304A934231D0FB681B680F
:102FA0002E4A93422CD0FB681B682D4A934227D0AF
:102FB000FB681B682B4A934222D0FB681B682A4A95
:102FC00093421DD0FB681B68284A934218D0FB68C7
:102FD0001B68274A934213D0FB681B68254A93421B
:102FE0000ED0FB681B68244A934209D0FB681B681B
:102FF000224A934204D0FB681B68214A934208D1BD
:10300000FB681B681A68FB681B6842F001021A60C3
:1030100012E0FB681B681A68FB681B6842F001023B
:103020001A6009E0FB684FF400625A65FB680022F1
:1030300083F834200123FB75FB7D18461837BD4605
:1030400080BD00BF10000240280002404000024046
:10305000580002407000024088000240A000024078
:10306000B80002401004024028040240400402401C
:10307000580402407004024088040240A004024048
:10308000B8040240085402581C54025830540258E4
:1030900044540258585402586C54025880540258F0
:1030A0009454025880B586B000AF7860FFF7A8F856
:1030B00038617B68002B01D10123DCE27B6893F847
:1030C0003530DBB2022B08D07B6880225A657B68E2
:1030D000002283F834200123CDE27B681B68764A06
:1030E00093424AD07B681B68744A934245D07B6800
:1030F0001B68734A934240D07B681B68714A9342B5
:103100003BD07B681B68704A934236D07B681B6853
:103110006E4A934231D07B681B686D4A93422CD033
:103120007B681B686B4A934227D07B681B686A4A9E
:10313000934222D07B681B68684A93421DD07B680B
:103140001B68674A934218D07B681B68654A9342A4
:1031500013D07B681B68644A93420ED07B681B685F
:10316000624A934209D07B681B68614A934204D04B
:103170007B681B685F4A934201D1012300E0002372
:10318000002B13D07B681B681A687B681B6822F0D1
:103190001E021A607B681B685A697B681B6822F0F4
:1031A00080025A617B681B687B610AE07B681B6850
:1031B0001A687B681B6822F00E021A607B681B6825
:1031C0007B617B681B683C4A934272D07B681B68BA
:1031D0003A4A93426DD07B681B68394A934268D063
:1031E0007B681B68374A934263D07B681B68364A0A
:1031F00093425ED07B681B68344A934259D07B6807
:103200001B68334A934254D07B681B68314A93420F
:103210004FD07B681B68304A93424AD07B681B685A
:103220002E4A934245D07B681B682D4A934240D07A
:103230007B681B682B4A93423BD07B681B682A4AF9
:10324000934236D07B681B68284A934231D07B6812
:103250001B68274A93422CD07B681B68254A9342FF
:1032600027D07B681B68244A934222D07B681B6866
:10327000224A93421DD07B681B68214A934218D092
:103280007B681B681F4A934213D07B681B681E4AE9
:1032900093420ED07B681B681C4A934209D07B681E
:1032A0001B681B4A934204D07B681B68194A9342EF
:1032B00032D1012331E000BF10000240280002405B
:1032C0004000024058000240700002408800024066
:1032D000A0000240B800024010040240280402404E
:1032E0004004024058040240700402408804024036
:1032F000A0040240B8040240085402581C5402586A
:103300003054025844540258585402586C540258CD
:1033100080540258945402580023002B07D07B6835
:103320001B6E1A687B681B6E22F480721A607B68C1
:103330001B686D4A93424AD07B681B686B4A934274
:1033400045D07B681B686A4A934240D07B681B6803
:10335000684A93423BD07B681B68674A934236D0E9
:103360007B681B68654A934231D07B681B68644A5E
:1033700093422CD07B681B68624A934227D07B68BB
:103380001B68614A934222D07B681B685F4A934264
:103390001DD07B681B685E4A934218D07B681B680F
:1033A0005C4A934213D07B681B685B4A93420ED001
:1033B0007B681B68594A934209D07B681B68584A4E
:1033C000934204D07B681B68564A934208D17B68BD
:1033D0001B681A687B681B6822F001021A6007E00C
:1033E0007B681B681A687B681B6822F001021A6000
:1033F00013E0FEF705FF02463B69D31A052B0CD9F3
:103400007B6820225A657B68032283F835207B681D
:10341000002283F8342001232DE17B691B6803F02F
:103420000103002BE5D17B681B682F4A93424AD0E9
:103430007B681B682D4A934245D07B681B682C4AE9
:10344000934240D07B681B682A4A93423BD07B68FA
:103450001B68294A934236D07B681B68274A9342EF
:1034600031D07B681B68264A93422CD07B681B684E
:10347000244A934227D07B681B68234A934222D078
:103480007B681B68214A93421DD07B681B68204AD9
:10349000934218D07B681B681E4A934213D07B6806
:1034A0001B681D4A93420ED07B681B681B4A9342DF
:1034B00009D07B681B681A4A934204D07B681B685A
:1034C000184A934201D1012300E00023002B2BD0A6
:1034D0007B689B6DBB607B68DB6D03F01F033F2245
:1034E0009A40BB689A602AE010000240280002401F
:1034F0004000024058000240700002408800024034
:10350000A0000240B800024010040240280402401B
:103510004004024058040240700402408804024003
:10352000A0040240B80402407B689B6DFB607B688E
:10353000DB6D03F01F0301229A40FB685A607B6831
:103540001B684F4A934272D07B681B684D4A934276
:103550006DD07B681B684C4A934268D07B681B68BF
:103560004A4A934263D07B681B68494A93425ED0C3
:103570007B681B68474A934259D07B681B68464A60
:10358000934254D07B681B68444A93424FD07B6877
:103590001B68434A93424AD07B681B68414A934266
:1035A00045D07B681B68404A934240D07B681B68CB
:1035B0003E4A93423BD07B681B683D4A934236D0DB
:1035C0007B681B683B4A934231D07B681B683A4A50
:1035D00093422CD07B681B68384A934227D07B6883
:1035E0001B68374A934222D07B681B68354A934256
:1035F0001DD07B681B68344A934218D07B681B68D7
:10360000324A934213D07B681B68314A93420ED0F2
:103610007B681B682F4A934209D07B681B682E4A3F
:10362000934204D07B681B682C4A934201D101234A
:1036300000E00023002B15D07B685B6E7A68926EE9
:103640005A607B68DB6E002B0CD07B68DB6E1A68DF
:103650007B68DB6E22F480721A607B681B6F7A686D
:10366000526F5A607B68012283F835207B68002204
:1036700083F83420002318461837BD4680BD00BFAC
:103680001000024028000240400002405800024062
:103690007000024088000240A0000240B8000240D2
:1036A0001004024028040240400402405804024032
:1036B0007004024088040240A0040240B8040240A2
:1036C000085402581C5402583054025844540258AA
:1036D000585402586C54025880540258945402585A
:1036E00080B584B000AF78607B68002B01D10123E6
:1036F00037E27B6893F83530DBB2022B04D07B686D
:1037000080225A6501232CE27B681B685C4A934245
:103710004AD07B681B685B4A934245D07B681B6834
:10372000594A934240D07B681B68584A93423BD029
:103730007B681B68564A934236D07B681B68554AA3
:10374000934231D07B681B68534A93422CD07B68EC
:103750001B68524A934227D07B681B68504A9342A9
:1037600022D07B681B684F4A93421DD07B681B6840
:103770004D4A934218D07B681B684C4A934213D041
:103780007B681B684A4A93420ED07B681B68494A93
:10379000934209D07B681B68474A934204D07B68F8
:1037A0001B68464A934201D1012300E00023002B0D
:1037B00000F086807B68042283F835207B681B68D4
:1037C0002F4A93424AD07B681B682E4A934245D0C9
:1037D0007B681B682C4A934240D07B681B682B4A4D
:1037E00093423BD07B681B68294A934236D07B6862
:1037F0001B68284A934231D07B681B68264A934253
:103800002CD07B681B68254A934227D07B681B68B5
:10381000234A934222D07B681B68224A93421DD0E0
:103820007B681B68204A934218D07B681B681F4A3C
:10383000934213D07B681B681D4A93420ED07B686D
:103840001B681C4A934209D07B681B681A4A934242
:1038500004D07B681B68194A934208D17B681B68B7
:103860001A687B681B6822F001021A6078E17B68A5
:103870001B681A687B681B6822F001021A606FE1FE
:103880001000024028000240400002405800024060
:103890007000024088000240A0000240B8000240D0
:1038A0001004024028040240400402405804024030
:1038B0007004024088040240A0040240B8040240A0
:1038C0007B681B681A687B681B6822F00E021A600E
:1038D0007B681B686C4A93424AD07B681B686B4AC2
:1038E000934245D07B681B68694A934240D07B680D
:1038F0001B68684A93423BD07B681B68664A9342C8
:1039000036D07B681B68654A934231D07B681B6860
:10391000634A93422CD07B681B68624A934227D04B
:103920007B681B68604A934222D07B681B685F4AB1
:1039300093421DD07B681B685D4A934218D07B6818
:103940001B685C4A934213D07B681B685A4A9342B7
:103950000ED07B681B68594A934209D07B681B686C
:10396000574A934204D07B681B68564A934208D159
:103970007B681B681A687B681B6822F001021A606A
:1039800007E07B681B681A687B681B6822F00102ED
:103990001A607B681B683C4A934272D07B681B6844
:1039A0003A4A93426DD07B681B68394A934268D08B
:1039B0007B681B68374A934263D07B681B68364A32
:1039C00093425ED07B681B68344A934259D07B682F
:1039D0001B68334A934254D07B681B68314A934238
:1039E0004FD07B681B68304A93424AD07B681B6883
:1039F0002E4A934245D07B681B682D4A934240D0A3
:103A00007B681B682B4A93423BD07B681B682A4A21
:103A1000934236D07B681B68284A934231D07B683A
:103A20001B68274A93422CD07B681B68254A934227
:103A300027D07B681B68244A934222D07B681B688E
:103A4000224A93421DD07B681B68214A934218D0BA
:103A50007B681B681F4A934213D07B681B681E4A11
:103A600093420ED07B681B681C4A934209D07B6846
:103A70001B681B4A934204D07B681B68194A934217
:103A800032D1012331E000BF100002402800024083
:103A9000400002405800024070000240880002408E
:103AA000A0000240B8000240100402402804024076
:103AB000400402405804024070040240880402405E
:103AC000A0040240B8040240085402581C54025892
:103AD0003054025844540258585402586C540258F6
:103AE00080540258945402580023002B28D07B683D
:103AF0001B6E1A687B681B6E22F480721A607B68EA
:103B00009B6DFB607B68DB6D03F01F0301229A4015
:103B1000FB685A607B685B6E7A68926E5A607B685D
:103B2000DB6E002B0CD07B68DB6E1A687B68DB6E6B
:103B300022F480721A607B681B6F7A68526F5A6039
:103B40007B68012283F835207B68002283F83420CB
:103B50007B681B6D002B03D07B681B6D78689847D2
:103B6000002318461037BD4680BD00BF80B58AB01F
:103B700000AF78600023FB60674B1B68674AA2FBBD
:103B800003239B0A7B627B689B6D3B627B689B6D1A
:103B9000FB613B6A1B68BB61FB691B687B617B68DF
:103BA0001B685F4A93424AD07B681B685D4A934218
:103BB00045D07B681B685C4A934240D07B681B6899
:103BC0005A4A93423BD07B681B68594A934236D08D
:103BD0007B681B68574A934231D07B681B68564A02
:103BE00093422CD07B681B68544A934227D07B6851
:103BF0001B68534A934222D07B681B68514A934208
:103C00001DD07B681B68504A934218D07B681B68A4
:103C10004E4A934213D07B681B684D4A93420ED0A4
:103C20007B681B684B4A934209D07B681B684A4AF1
:103C3000934204D07B681B68484A934201D1012318
:103C400000E00023002B00F02B847B68DB6D03F089
:103C50001F0308229A40BB691340002B00F0A2808A
:103C60007B681B682E4A93424AD07B681B682D4AAA
:103C7000934245D07B681B682B4A934240D07B68B7
:103C80001B682A4A93423BD07B681B68284A9342B0
:103C900036D07B681B68274A934231D07B681B680B
:103CA000254A93422CD07B681B68244A934227D034
:103CB0007B681B68224A934222D07B681B68214A9A
:103CC00093421DD07B681B681F4A934218D07B68C3
:103CD0001B681E4A934213D07B681B681C4A9342A0
:103CE0000ED07B681B681B4A934209D07B681B6817
:103CF000194A934204D07B681B68184A93422FD11B
:103D00007B681B681B6803F00403002B14BF0123AE
:103D10000023DBB22EE000BF14000024B5814E1B4F
:103D200010000240280002404000024058000240BB
:103D30007000024088000240A0000240B80002402B
:103D4000100402402804024040040240580402408B
:103D50007004024088040240A0040240B8040240FB
:103D60007B681B681B6803F00803002B14BF01234A
:103D70000023DBB2002B15D07B681B681A687B68B8
:103D80001B6822F004021A607B68DB6D03F01F03DE
:103D900008229A403B6A9A607B685B6D43F001029F
:103DA0007B685A657B68DB6D03F01F03BA6922FAF2
:103DB00003F303F00103002B6ED07B681B68694A94
:103DC00093424AD07B681B68674A934245D07B6820
:103DD0001B68664A934240D07B681B68644A9342E2
:103DE0003BD07B681B68634A934236D07B681B6874
:103DF000614A934231D07B681B68604A93422CD061
:103E00007B681B685E4A934227D07B681B685D4ACB
:103E1000934222D07B681B685B4A93421DD07B682B
:103E20001B685A4A934218D07B681B68584A9342D1
:103E300013D07B681B68574A93420ED07B681B687F
:103E4000554A934209D07B681B68544A934204D078
:103E50007B681B68524A93420AD17B681B685B6986
:103E600003F08003002B14BF01230023DBB203E027
:103E70007B681B681B680023002B0DD07B68DB6D03
:103E800003F01F0301229A403B6A9A607B685B6DD6
:103E900043F002027B685A657B68DB6D03F01F0309
:103EA00004229A40BB691340002B00F08F807B688E
:103EB0001B682C4A93424AD07B681B682A4A93426B
:103EC00045D07B681B68294A934240D07B681B68B9
:103ED000274A93423BD07B681B68264A934236D0E0
:103EE0007B681B68244A934231D07B681B68234A55
:103EF00093422CD07B681B68214A934227D07B6871
:103F00001B68204A934222D07B681B681E4A93425A
:103F10001DD07B681B681D4A934218D07B681B68C4
:103F20001B4A934213D07B681B681A4A93420ED0F7
:103F30007B681B68184A934209D07B681B68174A44
:103F4000934204D07B681B68154A93422AD17B6850
:103F50001B681B6803F00203002B14BF012300231E
:103F6000DBB223E010000240280002404000024083
:103F7000580002407000024088000240A000024049
:103F8000B8000240100402402804024040040240ED
:103F9000580402407004024088040240A004024019
:103FA000B80402407B681B681B680023002B0DD0FF
:103FB0007B68DB6D03F01F0304229A403B6A9A6022
:103FC0007B685B6D43F004027B685A657B68DB6D40
:103FD00003F01F0310229A40BB691340002B00F02E
:103FE000A6807B681B68854A93424AD07B681B6821
:103FF000834A934245D07B681B68824A934240D0F3
:104000007B681B68804A93423BD07B681B687F4A71
:10401000934236D07B681B687D4A934231D07B68DF
:104020001B687C4A93422CD07B681B687A4A934277
:1040300027D07B681B68794A934222D07B681B6833
:10404000774A93421DD07B681B68764A934218D00A
:104050007B681B68744A934213D07B681B68734A61
:1040600093420ED07B681B68714A934209D07B68EB
:104070001B68704A934204D07B681B686E4A934267
:104080000AD17B681B681B6803F00803002B14BF70
:1040900001230023DBB209E07B681B681B6803F087
:1040A0000403002B14BF01230023DBB2002B3ED0FE
:1040B0007B68DB6D03F01F0310229A403B6A9A6015
:1040C0007B681B681B6803F48023002B18D07B6877
:1040D0001B681B6803F40023002B08D17B681B6C52
:1040E000002B24D07B681B6C786898471FE07B68A6
:1040F0009B6C002B1BD07B689B6C7868984716E004
:104100007B681B681B6803F48073002B07D17B68F6
:104110001B681A687B681B6822F008021A607B68BB
:104120001B6C002B03D07B681B6C786898477B68FE
:10413000DB6D03F01F0320229A40BB691340002B64
:1041400000F010817B681B682C4A93424AD07B6840
:104150001B682B4A934245D07B681B68294A9342CF
:1041600040D07B681B68284A93423BD07B681B6821
:10417000264A934236D07B681B68254A934231D049
:104180007B681B68234A93422CD07B681B68224AB9
:10419000934227D07B681B68204A934222D07B68D9
:1041A0001B681F4A93421DD07B681B681D4A9342BF
:1041B00018D07B681B681C4A934213D07B681B682D
:1041C0001A4A93420ED07B681B68194A934209D061
:1041D0007B681B68174A934204D07B681B68164AA9
:1041E00093422BD17B681B681B6803F01003002BE4
:1041F00014BF01230023DBB22AE000BF10000240FD
:104200002800024040000240580002407000024076
:1042100088000240A0000240B800024010040240A2
:104220002804024040040240580402407004024046
:1042300088040240A0040240B80402407B681B6866
:104240001B6803F00203002B14BF01230023DBB221
:10425000002B00F087807B68DB6D03F01F032022BA
:104260009A403B6A9A607B6893F83530DBB2042B46
:1042700039D17B681B681A687B681B6822F01602BC
:104280001A607B681B685A697B681B6822F0800291
:104290005A617B681B6C002B03D17B689B6C002BE5
:1042A00007D07B681B681A687B681B6822F00802CD
:1042B0001A607B68DB6D03F01F033F229A403B6A64
:1042C0009A607B68012283F835207B68002283F89E
:1042D00034207B681B6D002B00F04A837B681B6DCC
:1042E0007868984744E37B681B681B6803F4802365
:1042F000002B18D07B681B681B6803F40023002B7D
:1043000008D17B685B6C002B2CD07B685B6C786879
:10431000984727E07B68DB6B002B23D07B68DB6B47
:10432000786898471EE07B681B681B6803F48073FD
:10433000002B0FD17B681B681A687B681B6822F012
:1043400010021A607B68012283F835207B68002206
:1043500083F834207B68DB6B002B03D07B68DB6B3E
:10436000786898477B685B6D002B00F006837B685C
:104370005B6D03F00103002B00F088807B68042252
:1043800083F835207B681B687A4A93424AD07B6861
:104390001B68794A934245D07B681B68774A9342F1
:1043A00040D07B681B68764A93423BD07B681B6891
:1043B000744A934236D07B681B68734A934231D06B
:1043C0007B681B68714A93422CD07B681B68704ADB
:1043D000934227D07B681B686E4A934222D07B6849
:1043E0001B686D4A93421DD07B681B686B4A9342E1
:1043F00018D07B681B686A4A934213D07B681B689D
:10440000684A93420ED07B681B68674A934209D082
:104410007B681B68654A934204D07B681B68644ACA
:10442000934208D17B681B681A687B681B6822F07E
:1044300001021A6007E07B681B681A687B681B68CA
:1044400022F001021A60FB680133FB607A6A9A422B
:1044500007D37B681B681B6803F00103002BF2D1B4
:1044600000E000BF7B681B681B6803F00103002BA2
:1044700004D07B68032283F8352003E07B680122A7
:1044800083F835207B68002283F834207B68DB6C5E
:10449000002B00F072827B68DB6C786898476CE2D6
:1044A0007B681B68434A934222D07B681B68424A60
:1044B00093421DD07B681B68404A934218D07B68AA
:1044C0001B683F4A934213D07B681B683D4A934266
:1044D0000ED07B681B683C4A934209D07B681B68FE
:1044E0003A4A934204D07B681B68394A934201D10F
:1044F000012300E00023002B00F03F827B681B6853
:104500001B683B617B68DB6D03F01F0304229A404C
:104510007B691340002B00F0CD803B6903F004035E
:10452000002B00F0C7807B68DB6D03F01F030422C3
:104530009A40FB695A603B6903F40043002B49D061
:104540003B6903F48033002B09D17B689B6C002B03
:1045500000F010827B689B6C786898470AE27B6861
:104560001B6C002B00F006827B681B6C78689847F8
:1045700000E200BF1000024028000240400002405C
:10458000580002407000024088000240A000024033
:10459000B8000240100402402804024040040240D7
:1045A000580402407004024088040240A004024003
:1045B000B8040240085402581C540258305402589F
:1045C00044540258585402586C54025880540258AB
:1045D000945402583B6903F02003002B60D17B68A0
:1045E0001B687F4A93424AD07B681B687D4A93428E
:1045F00045D07B681B687C4A934240D07B681B682F
:104600007A4A93423BD07B681B68794A934236D002
:104610007B681B68774A934231D07B681B68764A77
:1046200093422CD07B681B68744A934227D07B68E6
:104630001B68734A934222D07B681B68714A93427D
:104640001DD07B681B68704A934218D07B681B683A
:104650006E4A934213D07B681B686D4A93420ED01A
:104660007B681B686B4A934209D07B681B686A4A67
:10467000934204D07B681B68684A934208D17B68E8
:104680001B681A687B681B6822F008021A6007E042
:104690007B681B681A687B681B6822F004021A603A
:1046A0007B681B6C002B00F065817B681B6C786855
:1046B00098475FE17B68DB6D03F01F0302229A409D
:1046C0007B691340002B00F0C5803B6903F00203B7
:1046D000002B00F0BF807B68DB6D03F01F0302221C
:1046E0009A40FB695A603B6903F40043002B18D0E1
:1046F0003B6903F48033002B09D17B685B6C002B92
:1047000000F03A817B685B6C7868984734E17B689D
:10471000DB6B002B00F030817B68DB6B786898479F
:104720002AE13B6903F02003002B40F089807B687D
:104730001B682B4A93424AD07B681B68294A9342E4
:1047400045D07B681B68284A934240D07B681B6831
:10475000264A93423BD07B681B68254A934236D059
:104760007B681B68234A934231D07B681B68224ACE
:1047700093422CD07B681B68204A934227D07B68E9
:104780001B681F4A934222D07B681B681D4A9342D4
:104790001DD07B681B681C4A934218D07B681B683D
:1047A0001A4A934213D07B681B68194A93420ED071
:1047B0007B681B68174A934209D07B681B68164ABE
:1047C000934204D07B681B68144A934228D17B68CB
:1047D0001B681A687B681B6822F014021A6027E0C5
:1047E00010000240280002404000024058000240F1
:1047F0007000024088000240A0000240B800024061
:1048000010040240280402404004024058040240C0
:104810007004024088040240A0040240B804024030
:104820007B681B681A687B681B6822F00A021A60A2
:104830007B68012283F835207B68002283F83420CE
:104840007B68DB6B002B00F097807B68DB6B786804
:10485000984791E07B68DB6D03F01F0308229A40C4
:104860007B691340002B00F088803B6903F008034C
:10487000002B00F082807B681B68414A93424AD03B
:104880007B681B683F4A934245D07B681B683E4A61
:10489000934240D07B681B683C4A93423BD07B6884
:1048A0001B683B4A934236D07B681B68394A934267
:1048B00031D07B681B68384A93422CD07B681B68D8
:1048C000364A934227D07B681B68354A934222D0F0
:1048D0007B681B68334A93421DD07B681B68324A51
:1048E000934218D07B681B68304A934213D07B6890
:1048F0001B682F4A93420ED07B681B682D4A934257
:1049000009D07B681B682C4A934204D07B681B68E3
:104910002A4A934208D17B681B681A687B681B6827
:1049200022F01C021A6007E07B681B681A687B682B
:104930001B6822F00E021A607B68DB6D03F01F0318
:1049400001229A40FB695A607B6801225A657B68A4
:10495000012283F835207B68002283F834207B68AD
:10496000DB6C002B09D07B68DB6C7868984704E02F
:1049700000BF02E000BF00E000BF2837BD4680BD99
:10498000100002402800024040000240580002404F
:104990007000024088000240A0000240B8000240BF
:1049A000100402402804024040040240580402401F
:1049B0007004024088040240A0040240B80402408F
:1049C00080B483B000AF78607B685B6D18460C37AD
:1049D000BD465DF8047B704780B487B000AFF860D7
:1049E000B9607A603B60FB689B6D7B61FB689B6D87
:1049F0003B61FB681B687F4A934272D0FB681B686F
:104A00007D4A93426DD0FB681B687C4A934268D014
:104A1000FB681B687A4A934263D0FB681B68794A3B
:104A200093425ED0FB681B68774A934259D0FB687B
:104A30001B68764A934254D0FB681B68744A9342C1
:104A40004FD0FB681B68734A93424AD0FB681B68CF
:104A5000714A934245D0FB681B68704A934240D02C
:104A6000FB681B686E4A93423BD0FB681B686D4A2B
:104A7000934236D0FB681B686B4A934231D0FB6887
:104A80001B686A4A93422CD0FB681B68684A9342B1
:104A900027D0FB681B68674A934222D0FB681B68DB
:104AA000654A93421DD0FB681B68644A934218D044
:104AB000FB681B68624A934213D0FB681B68614A1B
:104AC00093420ED0FB681B685F4A934209D0FB6893
:104AD0001B685E4A934204D0FB681B685C4A9342A1
:104AE00001D1012300E00023002B0DD0FB685B6E99
:104AF000FA68926E5A60FB68DB6E002B04D0FB688C
:104B00001B6FFA68526F5A60FB681B68394A934200
:104B10004AD0FB681B68384A934245D0FB681B6843
:104B2000364A934240D0FB681B68354A93423BD0DB
:104B3000FB681B68334A934236D0FB681B68324AD5
:104B4000934231D0FB681B68304A93422CD0FB68FB
:104B50001B682F4A934227D0FB681B682D4A93425B
:104B600022D0FB681B682C4A93421DD0FB681B684F
:104B70002A4A934218D0FB681B68294A934213D0F3
:104B8000FB681B68274A93420ED0FB681B68264AC5
:104B9000934209D0FB681B68244A934204D0FB6807
:104BA0001B68234A934201D1012300E00023002B1C
:104BB00059D0FB68DB6D03F01F033F229A407B69ED
:104BC0009A60FB681B681A68FB681B6822F48022E5
:104BD0001A60FB681B683A685A60FB689B68402B48
:104BE00038D1FB681B687A689A60FB681B68BA68F2
:104BF000DA6086E0100002402800024040000240D7
:104C0000580002407000024088000240A0000240AC
:104C1000B800024010040240280402404004024050
:104C2000580402407004024088040240A00402407C
:104C3000B8040240085402581C5402583054025818
:104C400044540258585402586C5402588054025824
:104C500094540258FB681B68BA689A60FB681B682A
:104C60007A68DA604DE0FB681B68294A934222D0DB
:104C7000FB681B68274A93421DD0FB681B68264AC5
:104C8000934218D0FB681B68244A934213D0FB68F8
:104C90001B68234A93420ED0FB681B68214A93424B
:104CA00009D0FB681B68204A934204D0FB681B684C
:104CB0001E4A934201D1012300E00023002B20D0A3
:104CC000FB68DB6D03F01F0301229A403B695A60C9
:104CD000FB681B683A685A60FB689B68402B08D1E8
:104CE000FB681B687A689A60FB681B68BA68DA60C0
:104CF00007E0FB681B68BA689A60FB681B687A6803
:104D0000DA6000BF1C37BD465DF8047B704700BF0A
:104D1000085402581C540258305402584454025843
:104D2000585402586C5402588054025894540258F3
:104D300080B485B000AF78607B681B68424A9342BC
:104D40004AD07B681B68414A934245D07B681B6808
:104D50003F4A934240D07B681B683E4A93423BD017
:104D60007B681B683C4A934236D07B681B683B4A91
:104D7000934231D07B681B68394A93422CD07B68C0
:104D80001B68384A934227D07B681B68364A934297
:104D900022D07B681B68354A93421DD07B681B6814
:104DA000334A934218D07B681B68324A934213D02F
:104DB0007B681B68304A93420ED07B681B682F4A81
:104DC000934209D07B681B682D4A934204D07B68CC
:104DD0001B682C4A934201D1012300E00023002BE1
:104DE00024D07B681B68DBB2103B274AA2FB03235D
:104DF0001B09FB60FB6803F00703244AD35C1A46D7
:104E00007B68DA65FB68032B08D97B681B681A4648
:104E10001F4B13401A1D7B689A650DE07B681B6869
:104E20001A461B4B13407A68936505E07B681B6844
:104E300023F0FF027B689A657B689B6D18461437E8
:104E4000BD465DF8047B7047100002402800024018
:104E500040000240580002407000024088000240BA
:104E6000A0000240B80002401004024028040240A2
:104E7000400402405804024070040240880402408A
:104E8000A0040240B8040240ABAAAAAAA0EB010801
:104E900000FCFFFF80B485B000AF78600023FB7397
:104EA0007B689B69002B20D17B689B6A032B58D8B9
:104EB00001A252F823F000BFC94E0008DB4E0008E3
:104EC000C94E0008634F00087B68DB6A03F08073FB
:104ED000002B48D00123FB7345E07B68DB6AB3F10C
:104EE000C07F42D10123FB733FE07B689B69B3F530
:104EF000005F23D17B689B6A032B38D801A252F84C
:104F000023F000BF154F00081B4F0008154F000885
:104F10002D4F00080123FB7330E07B68DB6A03F050
:104F20008073002B25D00123FB7322E07B68DB6AB2
:104F3000B3F1C07F1FD10123FB731CE07B689B6A28
:104F4000022B02D9032B03D018E00123FB7315E0D9
:104F50007B68DB6A03F08073002B0ED00123FB73A8
:104F60000BE000BF0AE000BF08E000BF06E000BFA2
:104F700004E000BF02E000BF00E000BFFB7B18467A
:104F80001437BD465DF8047B704700BF80B485B020
:104F900000AF78607B681B68BB607B681B68384A21
:104FA000934222D07B681B68364A93421DD07B68AF
:104FB0001B68354A934218D07B681B68334A93427A
:104FC00013D07B681B68324A93420ED07B681B6803
:104FD000304A934209D07B681B682F4A934204D021
:104FE0007B681B682D4A934201D1012300E0002316
:104FF000002B1AD07B681B68DBB2083B284AA2FB57
:1050000003231B09FB60FA68264B13449B001A46D6
:105010007B681A667B68244A5A66FB6803F01F03A4
:1050200001229A407B689A6624E07B681B68DBB2A9
:10503000103B1E4AA2FB03231B09FB60BB681C4AF2
:10504000934206D8BB681B4A934202D9FB680833D7
:10505000FB60FA68184B13449B001A467B681A667B
:105060007B68164A5A66FB6803F01F0301229A40C8
:105070007B689A6600BF1437BD465DF8047B7047B5
:10508000085402581C5402583054025844540258D0
:10509000585402586C540258805402589454025880
:1050A000CDCCCCCC0096001680580258ABAAAAAA48
:1050B000B80402400F040240008200108008024041
:1050C00080B485B000AF78607B685B68DBB2FB6062
:1050D000FB68002B4AD0FB68082B47D87B681B680D
:1050E000254A934222D07B681B68244A93421DD0F4
:1050F0007B681B68224A934218D07B681B68214A50
:10510000934213D07B681B681F4A93420ED07B6882
:105110001B681E4A934209D07B681B681C4A934255
:1051200004D07B681B681B4A934201D1012300E035
:105130000023002B0AD0FA68174B13449B001A4631
:105140007B68DA667B68154A1A6709E0FA68144BCF
:1051500013449B001A467B68DA667B68114A1A671B
:10516000FB68013B01229A407B685A6700BF1437F5
:10517000BD465DF8047B7047085402581C54025821
:105180003054025844540258585402586C5402582F
:1051900080540258945402583F96001640590258C1
:1051A0003F8200104009024080B489B000AF7860AF
:1051B00039600023FB61894B7B6194E13B681A688D
:1051C0000121FB6901FA03F313403B613B69002BAA
:1051D00000F086813B685B6803F00303012B05D078
:1051E0003B685B6803F00303022B30D17B689B684C
:1051F000BB61FB695B00032202FA03F3DB43BA697C
:105200001340BB613B68DA68FB695B0002FA03F399
:10521000BA691343BB617B68BA699A607B685B6853
:10522000BB610122FB6902FA03F3DB43BA69134055
:10523000BB613B685B681B0903F00102FB6902FA72
:1052400003F3BA691343BB617B68BA695A603B6870
:105250005B6803F00303032B17D07B68DB68BB613B
:10526000FB695B00032202FA03F3DB43BA691340D4
:10527000BB613B689A68FB695B0002FA03F3BA6999
:105280001343BB617B68BA69DA603B685B6803F013
:105290000303022B23D1FB69DA087B68083253F839
:1052A0002230BB61FB6903F007039B000F2202FA67
:1052B00003F3DB43BA691340BB613B681A69FB69BE
:1052C00003F007039B0002FA03F3BA691343BB61BF
:1052D000FB69DA087B680832B96943F822107B68F9
:1052E0001B68BB61FB695B00032202FA03F3DB432B
:1052F000BA691340BB613B685B6803F00302FB695A
:105300005B0002FA03F3BA691343BB617B68BA69B5
:105310001A603B685B6803F44033002B00F0E080C8
:105320002F4BD3F8F4302E4A43F00203C2F8F43086
:105330002B4BD3F8F43003F00203FB60FB68294ADF
:10534000FB699B08023352F82330BB61FB6903F011
:1053500003039B000F2202FA03F3DB43BA691340F5
:10536000BB617B68204A934252D07B681F4A9342BC
:1053700031D07B681E4A93422BD07B681D4A9342F2
:1053800025D07B681C4A93421FD07B681B4A9342FE
:1053900019D07B681A4A934213D07B68194A93420A
:1053A0000DD07B68184A934207D07B68174A934216
:1053B00001D109232DE00A232BE0082329E007234C
:1053C00027E0062325E0052323E0042321E003232F
:1053D0001FE002231DE001231BE000BF80000058F6
:1053E000004402580004005800000258000402580B
:1053F00000080258000C025800100258001402580D
:1054000000180258001C02580020025800240258BC
:105410000023FA6902F0030292009340BA69134331
:10542000BB613849FB699B080233BA6941F8232004
:105430004FF0B0431B68BB613B69DB43BA69134063
:10544000BB613B685B6803F48013002B03D0BA692F
:105450003B691343BB614FF0B042BB6913604FF02F
:10546000B0435B68BB613B69DB43BA691340BB6116
:105470003B685B6803F40013002B03D0BA693B69F7
:105480001343BB614FF0B042BB6953607B695B68FB
:10549000BB613B69DB43BA691340BB613B685B6836
:1054A00003F40033002B03D0BA693B691343BB619B
:1054B0007B69BA695A607B691B68BB613B69DB43E6
:1054C000BA691340BB613B685B6803F48033002B0F
:1054D00003D0BA693B691343BB617B69BA691A603F
:1054E000FB690133FB613B681A68FB6922FA03F32D
:1054F000002B7FF463AE00BF00BF2437BD465DF8CC
:10550000047B70470004005880B483B000AF78601B
:105510000B467B8013467B707B78002B03D07A8808
:105520007B689A6103E07B881A047B689A6100BFFC
:105530000C37BD465DF8047B704780B485B000AF82
:1055400078600B467B807B685B69FB607A88FB68D0
:1055500013401A04FB68D9437B880B401A437B68CD
:105560009A6100BF1437BD465DF8047B70470000A8
:1055700080B584B000AF7860194BDB6803F004039A
:10558000042B0AD0164BDB6803F007037A689A42B3
:1055900001D001231FE000231DE0114BDB6823F045
:1055A00007020F497B681343CB60FCF729FEF860C4
:1055B00009E0FCF725FE0246FB68D31AB3F57A7FB3
:1055C00001D9012307E0064B5B6803F40053B3F5F0
:1055D000005FEED1002318461037BD4680BD00BFE6
:1055E0000048025880B58CB000AF78607B68002B13
:1055F00002D1012300F048BC7B681B6803F0010363
:10560000002B00F08880994B1B6903F03803FB6284
:10561000964B9B6ABB62FB6A102B07D0FB6A182B68
:1056200011D1BB6A03F00303022B0CD18F4B1B6813
:1056300003F40033002B6DD07B685B68002B69D1CD
:10564000012300F021BC7B685B68B3F5803F06D185
:10565000864B1B68854A43F4803313602EE07B68D9
:105660005B68002B0CD1814B1B68804A23F480338C
:1056700013607E4B1B687D4A23F4802313601DE07A
:105680007B685B68B3F5A02F0CD1784B1B68774A19
:1056900043F480231360754B1B68744A43F48033D2
:1056A00013600BE0714B1B68704A23F48033136066
:1056B0006E4B1B686D4A23F4802313607B685B6824
:1056C000002B13D0FCF79CFD786208E0FCF798FDF6
:1056D00002467B6AD31A642B01D90323D4E3634BBC
:1056E0001B6803F40033002BF0D014E0FCF788FDB6
:1056F000786208E0FCF784FD02467B6AD31A642BCB
:1057000001D90323C0E3594B1B6803F40033002B7A
:10571000F0D100E000BF7B681B6803F00203002BA0
:1057200000F0CA80514B1B6903F038033B624F4BBA
:105730009B6AFB613B6A002B07D03B6A182B56D152
:10574000FB6903F00303002B51D1484B1B6803F0A6
:105750000403002B05D07B68DB68002B01D10123FB
:1057600092E3424B1B6823F019027B68DB683F49D8
:1057700013430B60FCF744FD786208E0FCF740FD42
:1057800002467B6AD31A022B01D903237CE3374BF1
:105790001B6803F00403002BF0D0FCF73DFD03462B
:1057A00041F20302934217D87B681B69402B08D152
:1057B0002E4B5B6823F47C332C4A43F40033536054
:1057C0007AE02A4B5B6823F47C327B681B691B03FD
:1057D000264913434B606FE0244B5B6823F0FE4285
:1057E0007B681B691B06214913434B6064E07B689F
:1057F000DB68002B47D01D4B1B6823F019027B6828
:10580000DB681A4913430B60FCF7FAFC786208E086
:10581000FCF7F6FC02467B6AD31A022B01D903235C
:1058200032E3124B1B6803F00403002BF0D0FCF7AB
:10583000F3FC034641F20302934219D87B681B69CB
:10584000402B08D1094B5B6823F47C33074A43F4AF
:105850000033536030E0054B5B6823F47C327B6897
:105860001B691B03014913434B6025E000440258A8
:105870009A4B5B6823F0FE427B681B691B069749C5
:1058800013434B6018E0954B1B68944A23F00103C7
:105890001360FCF7B5FC786208E0FCF7B1FC024647
:1058A0007B6AD31A022B01D90323EDE28B4B1B68D1
:1058B00003F00403002BF0D17B681B6803F0100396
:1058C000002B00F0A980854B1B6903F03803BB61F6
:1058D000824B9B6A7B61BB69082B07D0BB69182B85
:1058E0003AD17B6903F00303012B35D17B4B1B6855
:1058F00003F48073002B05D07B68DB69802B01D01B
:105900000123C1E2FCF788FC034641F20302934203
:1059100017D87B681B6A202B08D1704B5B6823F07B
:10592000F8436E4A43F08043536075E06B4B5B680D
:1059300023F0F8427B681B6A9B06684913434B605F
:105940006AE0664BDB6823F07C527B681B6A1B06AF
:1059500062491343CB605FE07B68DB69002B42D078
:105960005E4B1B685D4A43F080031360FCF748FC04
:10597000786208E0FCF744FC02467B6AD31A022BEB
:1059800001D9032380E2554B1B6803F48073002B7D
:10599000F0D0FCF741FC034641F20302934217D8D2
:1059A0007B681B6A202B08D14C4B5B6823F0F843C3
:1059B0004A4A43F0804353602EE0484B5B6823F033
:1059C000F8427B681B6A9B06444913434B6023E003
:1059D000424BDB6823F07C527B681B6A1B063F4905
:1059E0001343CB6018E03D4B1B683C4A23F0800317
:1059F0001360FCF705FC786208E0FCF701FC024646
:105A00007B6AD31A022B01D903233DE2334B1B6877
:105A100003F48073002BF0D17B681B6803F008034C
:105A2000002B36D07B685B69002B19D02B4B5B6F4A
:105A30002A4A43F001035367FCF7E2FB786208E06F
:105A4000FCF7DEFB02467B6AD31A022B01D9032343
:105A50001AE2224B5B6F03F00203002BF0D018E038
:105A60001E4B5B6F1D4A23F001035367FCF7C8FB15
:105A7000786208E0FCF7C4FB02467B6AD31A022B6B
:105A800001D9032300E2154B5B6F03F00203002BE7
:105A9000F0D17B681B6803F02003002B39D07B68B2
:105AA0009B69002B1CD00D4B1B680C4A43F48053A0
:105AB0001360FCF7A5FB786208E0FCF7A1FB024647
:105AC0007B6AD31A022B01D90323DDE1034B1B6848
:105AD00003F40053002BF0D01BE000BF0044025839
